:020000040800F2
:1000000000280020E1040008C5040008C704000817
:10001000C9040008CB040008CD040008000000005B
:10002000000000000000000000000000CF040008F5
:10003000D104000800000000D3040008D504000823
:1000400029050008290500082905000829050008D8
:1000500029050008290500082905000829050008C8
:1000600029050008290500082905000829050008B8
:1000700029050008290500082905000829050008A8
:100080002905000829050008290500082905000898
:100090002905000829050008290500082905000888
:1000A0002905000829050008290500082905000878
:1000B000290500082905000800000000290500089E
:1000C00029050008000000000000000029050008C4
:1000D00000000000290500082905000800000000B4
:1000E000290500082905000829050008000000006E
:1000F0000000000000000000000000000000000000
:0C01000000000000000000005FF808F1A3
:10010C00002301461A46184600F08CB838B5084B47
:10011C00084D5B1B9C1007D0043B1D44013C55F85B
:10012C0004399847002CF9D1BDE8384000F0EEBEF8
:10013C00580F0008540F000870B50D4E0D4D761B6E
:10014C00B61006D0002455F8043B01349847A6425B
:10015C00F9D1094E094D00F0D3FE761BB61006D02E
:10016C00002455F8043B01349847A642F9D170BDE0
:10017C004C0F00084C0F0008540F00084C0F0008DF
:10018C00830730B548D0541E002A3FD00346CAB26C
:10019C0001E0013C3AD303F8012B9D07F9D1032C64
:1001AC002DD9CDB245EA05250F2C45EA054536D9A2
:1001BC00A4F1100222F00F0C03F1200EE6444FEADA
:1001CC00121C03F1100242E9045542E902551032A7
:1001DC007245F8D10CF1010214F00C0F03EB021272
:1001EC0004F00F0C13D0ACF1040323F0030304331D
:1001FC00134442F8045B9342FBD10CF003042CB182
:10020C00CAB21C4403F8012B9C42FBD130BD64469E
:10021C001346002CF4D1F9E703461446BFE71A46FF
:10022C00A446E0E72DE9F8431D4D0646286898469C
:10023C000F46914600F042F81A4B1B68D3F8484120
:10024C001CB3286865681F2D24DC4EB96B1C023565
:10025C00636044F8257000F039F80020BDE8F8839D
:10026C00012304EB8501C1F88890D4F88821AB40B8
:10027C001A43022EC4F88821C1F80881E6D1D4F8BB
:10028C008C211343C4F88C31E0E703F5A674C3F852
:10029C004841D6E700F01AF84FF0FF30DEE700BF18
:1002AC0030040020240F0008704700BF704700BFC7
:1002BC00704700BF704700BF704700BF704700BF5A
:1002CC000120704701207047704700BF704700BF86
:1002DC0010B5054C237833B9044B13B10448AFF374
:1002EC0000800123237010BD610400200000000079
:1002FC000C0F000808B5034B1BB103490348AFF3BF
:10030C00008008BD00000000640400200C0F0008F1
:10031C0030B589B0002404940594069407942F4BAF
:10032C009A6942F010029A619A6902F010020092E6
:10033C00009A9A6942F020029A619A6902F02002AE
:10034C000192019A9A6942F004029A619A6902F048
:10035C0004020292029A9A6942F008029A619B691D
:10036C0003F008030393039B1D4D22464FF40051E9
:10037C00284600F0A9FA4FF4005304930123059387
:10038C0006940223079304A9284600F091F94FF430
:10039C00404304930324059404A9284600F088F9EB
:1003AC000494059404A90F4800F082F94FF6FF75E8
:1003BC000495059404A90C4800F07AF90495059469
:1003CC0004A90A4800F074F9094A536843F0E06341
:1003DC0043F40043536009B030BD00BF001002402D
:1003EC00001001400014014000080140000C0140C5
:1003FC000000014072B6FEE700B591B02822002142
:10040C0006A8FFF7BDFE0023019302930393049308
:10041C0005930223069301230A9310230B9306A83A
:10042C0000F06EFA68B90F23019300210291039139
:10043C000491059101A800F0A3FC20B911B05DF85E
:10044C0004FBFFF7D7FFFFF7D5FF000008B500F05E
:10045C008DF8FFF7D1FFFFF75BFF0A4C01224FF439
:10046C000051204600F030FAC82000F0A3F800221A
:10047C004FF40051204600F027FAC82000F09AF8FB
:10048C00EBE700BF0010014082B00A4B9A6942F0C2
:10049C0001029A619A6902F001020092009ADA69EB
:1004AC0042F08052DA61DB6903F080530193019BC7
:1004BC0002B0704700100240FEE7FEE7FEE7FEE7E1
:1004CC00FEE770477047704708B500F061F808BD4B
:1004DC00704700000C480D490D4A002302E0D45827
:1004EC00C4500433C4188C42F9D30A4A0A4C002372
:1004FC0001E013600432A242FBD3FFF7E9FFFFF7E0
:10050C001BFEFFF7A3FF70470000002040040020F3
:10051C00580F00084004002080040020FEE7000073
:10052C0010B504460E4B1A784FF47A73B3FBF2F302
:10053C000C4A1068B0FBF3F000F0A6F868B90F2C69
:10054C0001D901200AE0002221464FF0FF3000F0D3
:10055C008BF8054B1C60002000E0012010BD00BF93
:10056C0038040020340400203C04002008B5074A5D
:10057C00136843F010031360032000F063F80F209E
:10058C00FFF7CEFFFFF780FF002008BD00200240E0
:10059C00034A1168034B1B780B441360704700BF70
:1005AC007C04002038040020014B1868704700BF01
:1005BC007C04002038B50446FFF7F6FF0546B4F17D
:1005CC00FF3F02D0044B1B781C44FFF7EDFF401B90
:1005DC00A042FAD338BD00BF38040020002808DB45
:1005EC000901C9B200F1604000F5614080F80013C8
:1005FC00704700F00F000901C9B2014B1954704744
:10060C0014ED00E000B500F00700C0F1070CBCF1E0
:10061C00040F28BF4FF0040C031D062B0FD9C31E6B
:10062C004FF0FF3E0EFA0CF021EA000199400EFA51
:10063C0003FE22EA0E0241EA02005DF804FB0023ED
:10064C00EEE70000074AD36823F4E0631B041B0C9D
:10065C00000200F4E060034343F0BF6343F4003353
:10066C00D360704700ED00E010B50446054BD86828
:10067C00C0F30220FFF7C6FF01462046FFF7AEFF8E
:10068C0010BD00BF00ED00E00138B0F1807F0BD24F
:10069C004FF0E0235861054AF02182F82310002026
:1006AC00986107221A6170470120704700ED00E045
:1006BC0070B582B00024A44686E07D4DAB4210D0CC
:1006CC0007D97C4DAB420CD005F58035AB4208D038
:1006DC0015E0A5F58015AB4203D005F57025AB42AE
:1006EC0009D18B68002B00F0BB80012B00F0B3808C
:1006FC004261082403E0A5F58015AB42F1D0BEF1B0
:10070C00FF0F00F2AF8006464FEA8C0233680F25CC
:10071C00954023EA050304FA02F2134333604B6855
:10072C0013F0805F4ED0644B9A6942F001029A61DB
:10073C009B6903F001030193019B4FEA9C02951CFA
:10074C005E4B53F825600CF00305AD000F23AB4056
:10075C0026EA03065A4B984200F08B8003F580631F
:10076C00984200F0888003F5806398427FD0032381
:10077C00AB4033430232514D45F822304B6813F4F1
:10078C00803F7AD04F4A136843EA0E0313604B68DC
:10079C0013F4003F77D04B4A536843EA0E0353607F
:1007AC004B6813F4801F74D0464A936843EA0E03D7
:1007BC0093604B6813F4001F71D0424AD36843EA2C
:1007CC000E03D3600CF1010C0B6833FA0CF26CD0F5
:1007DC00012202FA0CF203EA020E32EA0303F1D10F
:1007EC004B68122B3FF669AF122B88D801A555F830
:1007FC0023F000BFEF0600084D080008570800085A
:10080C00690800080B0700080B0700080B07000815
:10081C000B0700080B0700080B0700080B07000864
:10082C000B0700080B0700080B0700080B07000854
:10083C000B0700080B070008510800085D080008AA
:10084C00CC685CE7CC68043459E7CC68083456E7CC
:10085C00CC680C3453E70261082450E700244EE7BF
:10086C0004244CE7061DACF1080292004EE702236B
:10087C007EE700237CE701237AE7124A136823EA18
:10088C000E03136083E70F4A536823EA0E03536089
:10089C0086E70C4A936823EA0E03936089E7094ABA
:1008AC00D36823EA0E03D3608CE702B070BD00BF9F
:1008BC000000221000003110001002400000014026
:1008CC0000080140000401400AB1016170470904AD
:1008DC000161704782B0084B1B68084AA2FB0323D6
:1008EC005B0A00FB03F3019300BF019B5A1E0192AC
:1008FC00002BF9D102B0704734040020D34D6210A4
:10090C00002800F0F18170B582B00446036813F042
:10091C00010F2CD0994B5B6803F00C03042B1DD0FA
:10092C00964B5B6803F00C03082B12D06368B3F58D
:10093C00803F41D0002B55D103F1804303F50433A4
:10094C001A6822F480321A601A6822F480221A6023
:10095C0037E08A4B5B6813F4803FE7D0874B1B680A
:10096C0013F4003F03D06368002B00F0BF812368B1
:10097C0013F0020F75D0814B5B6813F00C0F5FD036
:10098C007E4B5B6803F00C03082B54D02369002BBF
:10099C0000F08A807A4B01221A60FFF705FE0546AB
:1009AC00764B1B6813F0020F75D1FFF7FDFD401B52
:1009BC000228F5D903209EE1704A136843F4803372
:1009CC001360636843B3FFF7EFFD05466B4B1B6881
:1009DC0013F4003FCBD1FFF7E7FD401B6428F5D99A
:1009EC00032088E1B3F5A02F09D0644B1A6822F4D8
:1009FC0080321A601A6822F480221A60E1E703F14F
:100A0C008043A3F53C331A6842F480221A601A68BA
:100A1C0042F480321A60D4E7FFF7C6FD0546574B07
:100A2C001B6813F4003FA2D0FFF7BEFD401B6428E7
:100A3C00F5D903205FE1514B5B6813F4803FA5D1DE
:100A4C004E4B1B6813F0020F03D02369012B40F0AF
:100A5C004F814A4A136823F0F803616943EAC103E2
:100A6C001360236813F0080F33D0A369002B5CD0FC
:100A7C00434B0122C3F88024FFF796FD05463F4BFC
:100A8C005B6A13F0020F21D1FFF78EFD401B022889
:100A9C00F5D903202FE1394A136823F0F803616973
:100AAC0043EAC1031360DCE7354B00221A60FFF701
:100ABC007BFD0546314B1B6813F0020FD1D0FFF7BD
:100ACC0073FD401B0228F5D9032014E10120FFF728
:100ADC0001FF236813F0040F00F09680274BDB69AD
:100AEC0013F0805F34D1254BDA6942F08052DA6121
:100AFC00DB6903F080530193019B0125214B1B689B
:100B0C0013F4807F26D0E368012B3DD0002B53D10A
:100B1C0003F1804303F504331A6A22F001021A62CE
:100B2C001A6A22F004021A6233E0154B0022C3F851
:100B3C008024FFF739FD0546104B5B6A13F0020F5A
:100B4C00C7D0FFF731FD401B0228F5D90320D2E0B6
:100B5C000025D3E70B4A136843F480731360FFF747
:100B6C0023FD0646074B1B6813F4807FCBD1FFF7A0
:100B7C001BFD801B6428F5D90320BCE0001002404B
:100B8C0000004242007000405F4A136A43F00103C8
:100B9C001362E36833B3FFF707FD06465A4B1B6A33
:100BAC0013F0020F2FD1FFF7FFFC801B41F28833AB
:100BBC009842F3D903209EE0052B09D0524B1A6AB8
:100BCC0022F001021A621A6A22F004021A62E0E7A9
:100BDC004D4B1A6A42F004021A621A6A42F0010280
:100BEC001A62D6E7FFF7E0FC0646474B1B6A13F088
:100BFC00020F08D0FFF7D8FC801B41F288339842D3
:100C0C00F3D9032077E0E5B9E369002B72D03E4AB3
:100C1C00526802F00C02082A56D0022B17D03B4B1C
:100C2C0000221A66FFF7C0FC0446374B1B6813F012
:100C3C00007F47D0FFF7B8FC001B0228F5D9032032
:100C4C0059E0314AD36923F08053D361DCE72F4B51
:100C5C0000221A66FFF7A8FC05462B4B1B6813F005
:100C6C00007F06D0FFF7A0FC401B0228F5D903201B
:100C7C0041E0236AB3F5803F1AD023494B6823F433
:100C8C007413226A606A024313434B601F4B0122A8
:100C9C001A66FFF789FC04461B4B1B6813F0007F98
:100CAC000ED1FFF781FC001B0228F5D9032022E0AE
:100CBC00154A536823F40033A1680B435360DCE7F7
:100CCC00002018E0002016E0012B16D00E4B5B68BC
:100CDC0003F48031226A914211D103F47013626AD9
:100CEC0093420ED1002006E001207047012002E063
:100CFC00012000E0002002B070BD0120FBE70120C4
:100D0C00F9E70120F7E700BF001002400000424263
:100D1C0086B0174B0FCB0DF1180C0CE90F0040F2FD
:100D2C000123ADF80430134B5B6803F00C02082A66
:100D3C0002D0114806B07047C3F3834218326A449C
:100D4C0012F8100C13F4803F0DD00A4B5B68C3F300
:100D5C00404318336B4413F8143C074A02FB00F071
:100D6C00B0FBF3F0E6E7054B03FB00F0E2E700BF56
:100D7C00380F00080010024000127A0000093D00F4
:100D8C00002800F0A08070B50D460446524B1B683D
:100D9C0003F007038B420BD24F4A136823F007036F
:100DAC000B431360136803F007038B4240F08D80F4
:100DBC00236813F0020F17D013F0040F04D0474A26
:100DCC00536843F4E0635360236813F0080F04D0B6
:100DDC00424A536843F460535360404A536823F0CB
:100DEC00F003A1680B435360236813F0010F31D05B
:100DFC006368012B20D0022B25D0384A126812F0E0
:100E0C00020F64D035494A6822F0030213434B6049
:100E1C00FFF7CAFB0646314B5B6803F00C036268B4
:100E2C00B3EB820F16D0FFF7BFFB801B41F2883368
:100E3C009842F0D9032045E0284A126812F4003F8A
:100E4C00E0D101203EE0254A126812F0007FD9D192
:100E5C00012037E0204B1B6803F00703AB420AD993
:100E6C001D4A136823F007032B431360136803F028
:100E7C000703AB422DD1236813F0040F06D0174A99
:100E8C00536823F4E063E1680B435360236813F069
:100E9C00080F07D0114A536823F46053216943EAC1
:100EAC00C1035360FFF734FF0C4B5B68C3F30313B0
:100EBC000B4AD35CD8400B4B18600B4B1868FFF7F0
:100ECC002FFB002070BD012070470120FAE70120A4
:100EDC00F8E70120F6E700BF0020024000100240B6
:100EEC00280F0008340400203C040020024B13B1EE
:100EFC000248FFF705B9704700000000190100080F
:100F0C00F8B500BFF8BC08BC9E467047F8B500BFEA
:080F1C00F8BC08BC9E467047BA
:100F2400080000200000000000000000010203048B
:100F34000607080902030405060708090A0B0C0D35
:080F44000E0F10100000000068
:080F4C00F90E00080103000882
:040F5400DD020008B2
:100F5800080000200000000000000000F40200204B
:100F68005C030020C4030020000000000000000013
:100F78000000000000000000000000000000000069
:100F88000000000000000000000000000000000059
:100F98000000000000000000000000000000000049
:100FA8000000000000000000000000000000000039
:100FB8000000000000000000000000000000000029
:100FC8000000000000000000000000000000000019
:100FD8000000000000000000000000000000000009
:100FE80000000000000000000000000000000000F9
:100FF80000000000000000000000000000000000E9
:1010080001000000000000000E33CDAB34126DE685
:10101800ECDE05000B0000000000000000000000EE
:1010280000000000000000000000000000000000B8
:1010380000000000000000000000000000000000A8
:101048000000000000000000000000000000000098
:101058000000000000000000000000000000000088
:10138800580400200024F4000100000010000000B0
:04000005080004E10A
:00000001FF
